:1000000003308A00C82B00000A108A100A118207E8
:1000100028340C34013406340C00202AE536F03242
:10002000F230F43AF2300A00E131F43A613600017C
:10003000EF2100010C00202AE536F032F230F43ACC
:10004000F2300A00E131F43A61360001EF2100019B
:10005000303084008313000803193C280130F80075
:10006000F701F70B3128F80B30284A30F700F70B6F
:1000700037283A28800B2E280800370EF039F70071
:100080000F30060577048600000006144728061086
:1000900008000608F700060E0F39F800080083165E
:1000A000061086100611831286100F30831606057F
:1000B000F03886008312061500000614000049205F
:1000C0007808B700061000000614000049207808E0
:1000D000B60006100F308316060586008312370E11
:1000E000F700F030F70577083604F8007808B60016
:1000F000B61B5528341C86103418861400000611CF
:1001000000000610350EB6000F30B6053608B700F1
:100110003D2035080F39B600B7003D2008000F30EC
:1001200083160605860006108610061183128610B7
:10013000061106100F30B00028200130A600260856
:10014000033C031CAB280330B7003D200530B00052
:100150002820A60A9F280230B7003D200530B000B5
:100160002820A6012608033C031CBF2826080420DB
:10017000A700B4012708B5004F20A60AB2288A11AB
:100180000A12D72B8E30F7002708F8002608F9004E
:10019000FA01F808031DD6287908F800F90108309B
:1001A000F702F808031DD628F701DE280310F81B14
:1001B000DD28F90DF80DF703D628F81308002608F6
:1001C00003194F29AE002A0803194F29AE07031857
:1001D000F0287F30AE02031C4F2903194F29F42861
:1001E0008130AE0703184F292E08F700F801F901F6
:1001F000FA012708B200B2172808B1002908B00098
:100200001830AE00AF01301C1D292D08FA07031C61
:100210000F29F90A031D0F29F80A0319AF172C0833
:10022000F907031C1629F80A0319AF172B08A800B1
:10023000A8172808F8070318AF17AF0DF80CF90C2A
:10024000FA0CB20CB10CB00C0310AE0B0229013049
:10025000F70703184F29F81B3429B20DFA0DF90DD1
:10026000F80DF70303194F29B21F4529FA0A031D98
:100270004529F90A031D4529F80A031D4529F80CEB
:10028000F90CFA0CF70A03194F292708AF002B08BD
:10029000AF06AF1F4D29F8175329F8135329F7015B
:1002A000F801F901FA01080080308318AF06B401A3
:1002B000B5012B08B3002F08B3062A080319442AF6
:1002C000B200F7002E0803194D2AB2020319E929DA
:1002D000031CA7292F08B800B8173008B700310849
:1002E000B600B5010310B80CB70CB60CB50CB20BC8
:1002F0007129B31F7E293414612A34103210341648
:100300002D3084008313762A3412B31B9129321CBA
:100310009C29B80CB70CB60CB50CF70A03195C2A6B
:100320009C29B81B9F290310B50DB60DB70DB80D4C
:10033000F70303195C2A91293417092A34132B086F
:10034000B300B31FA529B817552AB813552A2E088C
:10035000B200F7002A08B2022B08B800B8172C0820
:10036000B7002D08B600B5010310B80CB70CB60CD9
:10037000B50CB20BB329B31FC029B414612AB41051
:100380003210B416313084008313762AB412B31BB2
:10039000D329321CDE29B80CB70CB60CB50CF70A01
:1003A00003195C2ADE29B81BE1290310B50DB60D2F
:1003B000B70DB80DF70303195C2AD329B417092A1E
:1003C000B4132F08B300B31FE729B817552AB81381
:1003D000552A2F08B800B8173008B7003108B60002
:1003E000B31FF629B8133415612A3411B501321040
:1003F0002D3084008313762AB31B1F2A2B08B300E9
:10040000321C092AB80CB70CB60CB50CF70A031944
:100410005C2AB51F1A2AB60A031D1A2AB70A031D39
:100420001A2AB80A031D1A2AB80CB70CB60CF70A18
:1004300003195C2A341B9E29B41BE0293E2A803014
:10044000B806B81F272A612A2F08B300342A2B08C0
:10045000B300B808031D342AB708031D342AB608B0
:10046000031D342AF701552AB81B3E2A0310B50D87
:10047000B60DB70DB80DF70B342A5C2AB31F422A0C
:10048000B817552AB813552A2E08F7002F08B800B8
:100490003008B7003108B600552A2A08F7002B08A3
:1004A000B8002C08B7002D08B6003808F800370847
:1004B000F9003608FA00942AF701F801F901FA0167
:1004C000942AB501B609B709B809B509B50A031DDB
:1004D0006F2AB60A031D6F2AB70A0319B80A34181F
:1004E0007D29B418BF293419F529242A0008B60734
:1004F000031C802AB70A031D802AB80A0319321484
:1005000084030008B707031C882AB80A03193214A9
:1005100084030008801F803AB80703183214341A85
:100520008429B41AC629FC2908008E30F700260851
:10053000F7022708F9002808F800F917F708031947
:10054000AC2A0310F908031DA82AF8080319AC2ADD
:10055000F90CF80CF70BA12AA71FB32AF809F9091F
:10056000F80A0319F90A0800310BB72ABA2A4030F1
:10057000B200BB2AB20101303002B2073208803823
:10058000B300B4013308B5004F2008002F08073A24
:100590000319D42A0B3A0319D92A063A0319E12A76
:1005A000023A0319E72AEC2A0130B000B100B42264
:1005B000F12AB4010130B5004F200230B0002820EC
:1005C000F12A0130B0000230B100B422F12AB401A6
:1005D0001030B5004F20F12A0130B4002F08B500CB
:1005E0004F2008000B08A6008B13831603178C17E7
:1005F0000C140000000083120313851B8B170317D4
:100600000C087F390319462B0313A60003170D08A6
:100610000313A70003170F080313A8002608AF0051
:10062000C622270803178D000313280803178F001D
:1006300003130B08A9008B13831603178C170C14D4
:100640000000000083120313851B8B1703170C0D8A
:100650000E0D7F390319462B0313A60003170D084F
:100660000313A70003170F080313A8002608AF0001
:10067000C622270803178D000313280803178F00CD
:100680008D0A03198F0A0313F22A031703130800B4
:10069000AE010408AD002E10831B2E14A71F582B8B
:1006A000AD172D1EAD0AA609A709A60A0319A70AA8
:1006B000270EF038A900A907E23EAA00323EAC009E
:1006C00027080F39AA07AA07AC07E93EAB00AB071A
:1006D000AB07260E0F39AB07AC07AB0DAC0DAC0961
:1006E000AC0D26080F39AC07A90D0730A8000A3059
:1006F000AC07AB03031C782BAB07AA03031C7C2BB2
:10070000AA07A903031C802BA907A803031C842B99
:1007100028308400831307302D052D1384032D0505
:10072000031D992B2D1A840A2D1A992B2030F700BE
:10073000B62B84072C30040203192D170008F7008C
:10074000031DAA2B2D1BAA2B2D1AC42BAD19AA2BC6
:100750002030B52BAD1FB22B2D30F70084032D13A5
:10076000AD13B62BAD152D123030F707A7010408D5
:10077000A6002710831B27147708AF00C62226087F
:100780008400831327188317840A2D1F9A2B0800CF
:1007900003081F398300FF30A00083161F149F1425
:1007A0001F159F1107309C00831383128F28003080
:1007B000F80006389200FF30831692008312201151
:1007C000200883168700831207110C3097008316C8
:1007D0001F1383121F179F1783169F1783121F144F
:1007E00083161F109F141F159F150030F8008312E9
:1007F0001F08C73978049F000430A600FA30B00003
:100800002820A60BFE2B1F151F19042C83161E086B
:100810008312A1001E08A2002208A7002108A6003A
:10082000C220D030A900B330A8007930A7007D30B5
:10083000A6007A08AD007908AC007808AB0077080C
:10084000AA00DF207A08A9007908A8007808A70084
:100850007708A60083147A08AD007908AC00780800
:10086000AB007708AA005F30B1009830B0004C3080
:10087000AF007B30AE0054217A08A9007908A800A7
:100880007808A7007708A60095227908A4007808C0
:10089000A3000C3003178D0000308F000313F222E9
:1008A0000230B0000130B100B4220D3003178D00CA
:1008B00000308F000313F222143003178D00003034
:1008C0008F000313F2220D30B0000230B100B422C9
:1008D000183003178D0000308F000313F222083008
:1008E000B0000230B100B422103084002408A70008
:1008F0002308A600482395010430A600FA30B00072
:100900002820A60B7E2CA408031D8A2C2308133C48
:1009100003184D2DA408031D4D2D2308963C031CE0
:100920004D2D1F151F19922C83161E088312A1002E
:100930001E08A2002208A7002108A600C220D0306D
:10094000A900B330A8007930A7007D30A6007A084E
:10095000AD007908AC007808AB007708AA00DF206A
:100960007A08A9007908A8007808A7007708A600E7
:1009700083147A08AD007908AC007808AB007708DA
:10098000AA005F30B1009830B0004C30AF007B302F
:10099000AE0054217A08A9007908A8007808A700B9
:1009A0007708A60095227908A4007808A3001A30D9
:1009B00003178D0000308F000313F2220230B000C5
:1009C0000130B100B4221B3003178D0000308F00BE
:1009D0000313F222223003178D0000308F0003131F
:1009E000F2220D30B0000230B100B42226300317DD
:1009F0008D0000308F000313F2220830B000023067
:100A0000B100B422103084002408A7002308A600F7
:100A100048232408A7002308A600C2206F30A9009D
:100A20001230A8007B30A7007F30A6007A08AD0006
:100A30007908AC007808AB007708AA00DF207A08B4
:100A4000A9007908A8007808A7007708A6008314F1
:100A50007A08AD007908AC007808AB007708AA00E6
:100A60008B30B100EC30B0001C30AF008430AE00F1
:100A700054217A08A9007908A8007808A700770807
:100A8000A60095227808A500250895000430A60048
:0E0A9000FA30B0002820A60B482D032C63007E
:02400E00393F38
:00000001FF
;PIC16F876A
;CRC=7E1E  CREATED="21-jul-17 04:43"
